:020000040800F2
:1000000000500020AD050008AD030008AF03000854
:10001000B1030008B3030008B503000800000000A6
:10002000000000000000000000000000B70300080E
:10003000B903000800000000BB030008BD0300086E
:10004000F5050008F5050008F5050008F5050008A8
:10005000F5050008F5050008F5050008F505000898
:10006000F5050008F5050008F5050008F505000888
:10007000F5050008F5050008F5050008F505000878
:10008000F5050008F5050008F5050008F505000868
:10009000F5050008F5050008F5050008F505000858
:1000A000F5050008F5050008F5050008F505000848
:1000B000F5050008F5050008F5050008F505000838
:1000C000F5050008F5050008F5050008F505000828
:1000D000F5050008F5050008F5050008F505000818
:1000E000F5050008F5050008F5050008000000000A
:1000F0000000000000000000000000000000000000
:0C01000000000000000000005FF808F1A3
:10010C00844641EA000313F0030349D1403A23D358
:10011C000B6803604B6843608B688360CB68C3607B
:10012C000B6903614B6943618B698361CB69C36163
:10013C000B6A03624B6A43628B6A8362CB6AC3624B
:10014C000B6B03634B6B43638B6B8363CB6BC36333
:10015C0040304031403ADBD230320BD30B68036075
:10016C004B6843608B688360CB68C3601030103180
:10017C00103AF3D20C3205D351F8043B40F8043B4F
:10018C00043AF9D2043208D0D2071CBF11F8013B53
:10019C0000F8013B01D30B8803806046704700BF19
:1001AC00082A13D38B07B1D010F00303AED0C3F1E0
:1001BC000403D21ADB071CBF11F8013B00F8013B0A
:1001CC00A4D331F8023B20F8023B9FE7043AD9D381
:1001DC00013A11F8013B00F8013BF9D20B7803709E
:1001EC004B7843708B788370604670470348044BA0
:1001FC00834202D0034B03B11847704758050020C7
:10020C0058050020000000000548064B1B1AD90FAA
:10021C0001EBA301491002D0034B03B118477047FF
:10022C0058050020580500200000000010B5064CB1
:10023C00237843B9FFF7DAFF044B13B10448AFF34B
:10024C0000800123237010BD580500200000000021
:10025C002430000808B5054B1BB105490548AFF320
:10026C000080BDE80840FFF7CFBF00BF00000000D2
:10027C005C0500202430000882B00A4B9A6942F0D9
:10028C0020029A619A6902F020020092009A9A69FF
:10029C0042F004029A619B6903F004030193019BF1
:1002AC0002B070470010024000B583B001900A23E1
:1002BC00012201A9034801F021F9019803B05DF86E
:1002CC0004FB00BFC005002072B6FEE700B591B07C
:1002DC002822002106A801F0FDFA002301930293C5
:1002EC00039304930593012206924FF480330793F2
:1002FC000A9202220D920E934FF4E0130F9306A86C
:10030C0000F09AFB80B90F23019302210291002384
:10031C0003934FF480620492059301A800F0BEFD94
:10032C0020B911B05DF804FBFFF7CEFFFFF7CCFF4F
:10033C0008B500F0CFF9FFF7C9FFFFF79DFF00F0FC
:10034C008BF800F0D7F84FF47A7000F095F902486A
:10035C0001F070FAF7E700BF3C30000882B00E4B9A
:10036C009A6942F001029A619A6902F001020092C4
:10037C00009ADA6942F08052DA61DB6903F080534B
:10038C000193019B054A536823F0E06343F000732B
:10039C00536002B0704700BF0010024000000140E3
:1003AC00FEE7FEE7FEE7FEE7FEE7704770477047A3
:1003BC0008B500F0A1F908BD70B50C46164600252D
:1003CC0006E0AFF30080214601F8010B01350C4625
:1003DC00B542F6DB304670BD70B50C4616460025AE
:1003EC0004E014F8010BFFF75FFF0135B542F8DBB1
:1003FC00304670BD4FF0FF3070474FF400534B60E8
:10040C0000207047012070470020704710B503464C
:10041C000C4A0D490D48006840B10C480068034473
:10042C00521A934206D8094A136010BD0748084C6B
:10043C000460F2E701F0F2FA0C2303604FF0FF3096
:10044C00F3E700BF005000200004000074050020FA
:10045C00200900207047000000B587B000230293EC
:10046C00039304930593009301931548154A026076
:10047C004722426083604FF6FF72C2600361836162
:10048C0000F092FE90B94FF48053029302A90C48ED
:10049C0000F0C2FE68B90023009301936946084836
:1004AC0000F03AFF40B907B05DF804FBFFF70CFF12
:1004BC00E9E7FFF709FFEEE7FFF706FFF3E700BFF9
:1004CC0078050020000800400268094B9A4200D0D1
:1004DC00704782B003F50233DA6942F00402DA6144
:1004EC00DB6903F004030193019B02B0704700BF6A
:1004FC000008004008B50A480A4B03604FF4E1338A
:10050C00436000238360C36003610C2242618361FA
:10051C00C36100F0C3FF00B908BDFFF7D5FEFBE7D0
:10052C00C00500200038014010B586B000230293AE
:10053C000393049305930268174B9A4201D006B0BB
:10054C0010BD03F558439A6942F480429A619A6946
:10055C0002F480420092009A9A6942F004029A6175
:10056C009B6903F004030193019B4FF40073029306
:10057C000223039303230593084C02A9204600F0A1
:10058C0037F94FF48063029300230393049302A979
:10059C00204600F02DF9D2E7003801400008014058
:1005AC00FFF758FF0B480C490C4A002302E0D458C3
:1005BC00C4500433C4188C42F9D3094A094C0023A3
:1005CC0001E013600432A242FBD301F02DFAFFF7D5
:1005DC00AFFE704700000020580500208C3000084A
:1005EC005805002020090020FEE7000070B50546E4
:1005FC001F4BDB68834209D81E4EA6FB0036B60B98
:10060C004EF6602303FB160500241FE01848036810
:10061C0000225A6200F04CFD154B1B685B6AAB4222
:10062C00FAD3134800F072FD20E011480368002251
:10063C005A6200F03DFD0E4B1B685A6A4EF65F2362
:10064C009A42F8D90A4800F061FD0134B442ECD367
:10065C000748036800225A6200F02AFD044B1B680D
:10066C005B6AAB42FAD3024800F050FD70BD00BF8C
:10067C007805002073B2E74508B54FF47A7303FB95
:10068C0000F0FFF7B3FF08BD10B504460E4B1A7807
:10069C004FF47A73B3FBF2F30C4A1068B0FBF3F02F
:1006AC0000F092F868B90F2C01D901200AE0002261
:1006BC0021464FF0FF3000F077F8054B1C6000200E
:1006CC0000E0012010BD00BF04000020000000204D
:1006DC000800002008B5074A136843F010031360A4
:1006EC00032000F04FF80F20FFF7CEFFFFF736FE88
:1006FC00002008BD00200240034A1168034B1B7800
:10070C000B441360704700BF080600200400002053
:10071C00014B1868704700BF08060020002808DB52
:10072C000901C9B200F1604000F5614080F8001386
:10073C00704700F00F000901C9B2014B1954704702
:10074C0014ED00E000B500F00700C0F1070CBCF19F
:10075C00040F28BF4FF0040C031D062B0FD9C31E2A
:10076C004FF0FF3E0EFA0CF021EA000199400EFA10
:10077C0003FE22EA0E0241EA02005DF804FB0023AC
:10078C00EEE70000074AD36823F4E0631B041B0C5C
:10079C00000200F4E060034343F0BF6343F4003312
:1007AC00D360704700ED00E010B50446054BD868E7
:1007BC00C0F30220FFF7C6FF01462046FFF7AEFF4D
:1007CC0010BD00BF00ED00E00138B0F1807F0BD20E
:1007DC004FF0E0235861054AF02182F823100020E5
:1007EC00986107221A6170470120704700ED00E004
:1007FC0070B582B00024A446A2E07E4DAB4210D06E
:10080C0007D97D4DAB420CD005F58035AB4208D0F5
:10081C0013E0A5F58015AB4203D005F57025AB426E
:10082C0007D18B68002B55D0012B4ED04261082488
:10083C0003E0A5F58015AB42F3D0BEF1FF0F4BD80A
:10084C0006464FEA8C0233680F25954023EA0503D0
:10085C0004FA02F2134333604B6813F0805F6DD0DF
:10086C00664B9A6942F001029A619B6903F001039D
:10087C000193019B4FEA9C02951C614B53F8256038
:10088C000CF00305AD000F23AB4026EA03065D4BCD
:10089C00984228D003F58063984200F08D8003F5D0
:1008AC008063984200F08A8003F58063984218D0E8
:1008BC00042319E0CC68C0E7CC680434BDE7CC68ED
:1008CC000834BAE7CC680C34B7E702610824B4E703
:1008DC000024B2E70424B0E7061DACF10802920034
:1008EC00B1E7032300E00023AB4033430232444D15
:1008FC0045F822304B6813F4801F61D0424A93684C
:10090C0043EA0E0393604B6813F4001F5ED03E4A1B
:10091C00D36843EA0E03D3604B6813F4003F5BD0FB
:10092C00394A536843EA0E0353604B6813F4803F13
:10093C0058D0354A136843EA0E0313600CF1010CCE
:10094C000B6833FA0CF253D0012202FA0CF203EAD0
:10095C00020E32EA0303F1D14B68122B3FF64DAF76
:10096C00122B3FF66AAF01A555F823F02F080008AB
:10097C00C1080008CB080008DD080008470800087B
:10098C0047080008470800084708000847080008FF
:10099C0047080008470800084708000847080008EF
:1009AC0047080008470800084708000847080008DF
:1009BC00C5080008D1080008012395E7022393E736
:1009CC00114A936823EA0E0393609CE70E4AD3689E
:1009DC0023EA0E03D3609FE70B4A536823EA0E0306
:1009EC005360A2E7084A136823EA0E031360A5E7D5
:1009FC0002B070BD00002210000031100010024047
:100A0C0000000140000801400004014082B0084B86
:100A1C001B68084AA2FB03235B0A00FB03F3019348
:100A2C0000BF019B5A1E0192002BF9D102B07047F6
:100A3C0000000020D34D6210002800F0F18170B549
:100A4C0082B00446036813F0010F2CD0994B5B68FD
:100A5C0003F00C03042B1DD0964B5B6803F00C03C6
:100A6C00082B12D06368B3F5803F41D0002B55D1D1
:100A7C0003F1804303F504331A6822F480321A60C0
:100A8C001A6822F480221A6037E08A4B5B6813F4F0
:100A9C00803FE7D0874B1B6813F4003F03D063689B
:100AAC00002B00F0BF81236813F0020F75D0814B2F
:100ABC005B6813F00C0F5FD07E4B5B6803F00C038C
:100ACC00082B54D02369002B00F08A807A4B01222A
:100ADC001A60FFF71DFE0546764B1B6813F0020FDC
:100AEC0075D1FFF715FE401B0228F5D903209EE1B6
:100AFC00704A136843F480331360636843B3FFF7A1
:100B0C0007FE05466B4B1B6813F4003FCBD1FFF778
:100B1C00FFFD401B6428F5D9032088E1B3F5A02F15
:100B2C0009D0644B1A6822F480321A601A6822F4D5
:100B3C0080221A60E1E703F18043A3F53C331A6885
:100B4C0042F480221A601A6842F480321A60D4E7A8
:100B5C00FFF7DEFD0546574B1B6813F4003FA2D090
:100B6C00FFF7D6FD401B6428F5D903205FE1514BFC
:100B7C005B6813F4803FA5D14E4B1B6813F0020F3A
:100B8C0003D02369012B40F04F814A4A136823F0AC
:100B9C00F803616943EAC1031360236813F0080F7B
:100BAC0033D0A369002B5CD0434B0122C3F88024C3
:100BBC00FFF7AEFD05463F4B5B6A13F0020F21D1E8
:100BCC00FFF7A6FD401B0228F5D903202FE1394A77
:100BDC00136823F0F803616943EAC1031360DCE78F
:100BEC00354B00221A60FFF793FD0546314B1B680D
:100BFC0013F0020FD1D0FFF78BFD401B0228F5D963
:100C0C00032014E10120FFF701FF236813F0040F08
:100C1C0000F09680274BDB6913F0805F34D1254BB5
:100C2C00DA6942F08052DA61DB6903F08053019398
:100C3C00019B0125214B1B6813F4807F26D0E368B0
:100C4C00012B3DD0002B53D103F1804303F504332A
:100C5C001A6A22F001021A621A6A22F004021A625B
:100C6C0033E0154B0022C3F88024FFF751FD0546F5
:100C7C00104B5B6A13F0020FC7D0FFF749FD401B06
:100C8C000228F5D90320D2E00025D3E70B4A1368DC
:100C9C0043F480731360FFF73BFD0646074B1B685C
:100CAC0013F4807FCBD1FFF733FD801B6428F5D97B
:100CBC000320BCE0001002400000424200700040E3
:100CCC005F4A136A43F001031362E36833B3FFF71F
:100CDC001FFD06465A4B1B6A13F0020F2FD1FFF76C
:100CEC0017FD801B41F288339842F3D903209EE014
:100CFC00052B09D0524B1A6A22F001021A621A6AA9
:100D0C0022F004021A62E0E74D4B1A6A42F0040228
:100D1C001A621A6A42F001021A62D6E7FFF7F8FC6F
:100D2C000646474B1B6A13F0020F08D0FFF7F0FC86
:100D3C00801B41F288339842F3D9032077E0E5B960
:100D4C00E369002B72D03E4A526802F00C02082A6A
:100D5C0056D0022B17D03B4B00221A66FFF7D8FC5B
:100D6C000446374B1B6813F0007F47D0FFF7D0FCCD
:100D7C00001B0228F5D9032059E0314AD36923F02E
:100D8C008053D361DCE72F4B00221A66FFF7C0FCBF
:100D9C0005462B4B1B6813F0007F06D0FFF7B8FC01
:100DAC00401B0228F5D9032041E0236AB3F5803FAC
:100DBC001AD023494B6823F47413226A606A0243E5
:100DCC0013434B601F4B01221A66FFF7A1FC04462C
:100DDC001B4B1B6813F0007F0ED1FFF799FC001B17
:100DEC000228F5D9032022E0154A536823F4003376
:100DFC00A1680B435360DCE7002018E0002016E0EC
:100E0C00012B16D00E4B5B6803F48031226A9142A1
:100E1C0011D103F47013626A93420ED1002006E0E4
:100E2C0001207047012002E0012000E0002002B008
:100E3C0070BD0120FBE70120F9E70120F7E700BFB7
:100E4C0000100240000042420F4B5B6803F00C02A2
:100E5C00082A01D00D487047C3F383420C49885CC3
:100E6C0013F4803F0BD0084B5B68C3F34043094A33
:100E7C00D35C064A02FB00F0B0FBF3F07047064B64
:100E8C0003FB00F0704700BF0010024000127A0014
:100E9C00643000086030000800093D00002800F0B4
:100EAC00A08070B50D460446524B1B6803F0070337
:100EBC008B420BD24F4A136823F007030B4313608A
:100ECC00136803F007038B4240F08D80236813F006
:100EDC00020F17D013F0040F04D0474A536843F4A1
:100EEC00E0635360236813F0080F04D0424A536840
:100EFC0043F460535360404A536823F0F003A168F5
:100F0C000B435360236813F0010F31D06368012B3E
:100F1C0020D0022B25D0384A126812F0020F64D070
:100F2C0035494A6822F0030213434B60FFF7F0FB8C
:100F3C000646314B5B6803F00C036268B3EB820F1F
:100F4C0016D0FFF7E5FB801B41F288339842F0D9AD
:100F5C00032045E0284A126812F4003FE0D101203A
:100F6C003EE0254A126812F0007FD9D1012037E00B
:100F7C00204B1B6803F00703AB420AD91D4A1368C8
:100F8C0023F007032B431360136803F00703AB42F2
:100F9C002DD1236813F0040F06D0174A536823F49D
:100FAC00E063E1680B435360236813F0080F07D02C
:100FBC00114A536823F46053216943EAC103536017
:100FCC00FFF742FF0C4B5B68C3F303130B4AD35C74
:100FDC00D8400B4B18600B4B1868FFF755FB0020E3
:100FEC0070BD012070470120FAE70120F8E70120CD
:100FFC00F6E700BF0020024000100240503000080D
:10100C000000002008000020014B1868704700BF4A
:10101C000000002008B5FFF7F7FF044B5B68C3F333
:10102C000223034AD35CD84008BD00BF0010024025
:10103C004830000808B5FFF7E7FF044B5B68C3F3C3
:10104C00C223034AD35CD84008BD00BF0010024045
:10105C004830000810B4036A046A24F001040462E6
:10106C00846924F0F00C4CEA021223F00A030B43BF
:10107C008261036210BC704710B4036A046A24F0E6
:10108C0010040462846924F4704C4CEA023223F09C
:10109C00A00343EA01138261036210BC70478368AA
:1010AC0023F070030B4343F0070383607047000089
:1010BC0090F83D30DBB2012B22D1022380F83D3079
:1010CC000368114A934210D0B3F1804F0DD0A2F5B2
:1010DC009432934209D002F58062934205D01A688B
:1010EC0042F001021A60002070479A6802F0070271
:1010FC00062A07D01A6842F001021A6000207047D5
:10110C000120704700207047002C01400368196AC9
:10111C0041F21112114208D1196A40F244421142B3
:10112C0003D11A6822F001021A60012380F83D30C5
:10113C000020704703681B4A90420AD0B0F1804FE0
:10114C0007D0A2F59432904203D002F5806290420F
:10115C0003D123F070034A681343124A90420AD019
:10116C00B0F1804F07D0A2F59432904203D002F533
:10117C008062904203D123F44073CA68134323F076
:10118C0080034A69134303608B68C3620B688362F4
:10119C00044B984202D00123436170470B690363EF
:1011AC00F9E700BF002C014040B310B5044690F89D
:1011BC003D30F3B1022384F83D30214651F8040B45
:1011CC00FFF7B8FF012384F8463084F83E3084F8EA
:1011DC003F3084F8403084F8413084F8423084F851
:1011EC00433084F8443084F8453084F83D30002096
:1011FC0010BD80F83C30FFF767F9DBE70120704742
:10120C0010B4846824F47F4C42EA03220A4342EA75
:10121C000C02826010BC704790F83C30012B78D0E7
:10122C0010B50446012380F83C30022380F83D3091
:10123C000268936823F47F4323F0770393600B6871
:10124C00602B4CD029D8402B54D00CD9502B22D108
:10125C00CA6849680068FFF7FDFE50212068FFF757
:10126C001EFF002005E0202B0DD009D9302B0AD011
:10127C000120012384F83D30002384F83C3010BD5C
:10128C000BB1102B05D119462068FFF708FF002081
:10129C00EFE70120EDE70120EBE7B3F5805F34D0F9
:1012AC00B3F5005F0CD1CB684A6889680068FFF71A
:1012BC00A7FF2268936843F4804393600020D8E72B
:1012CC00702B24D1CB684A6889680068FFF798FFB7
:1012DC002268936843F0770393600020C9E7CA68DB
:1012EC0049680068FFF7C8FE60212068FFF7D7FE49
:1012FC000020BEE7CA6849680068FFF7ABFE4021D2
:10130C002068FFF7CCFE0020B3E70020B1E70120F6
:10131C00AFE702207047000090F83C20012A2CD047
:10132C0010B40346012280F83C20022280F83D20B4
:10133C0002685068946820F0700C086840EA0C0051
:10134C0050601A680E4882420AD0B2F1804F07D022
:10135C00A0F59430824203D000F58060824204D123
:10136C0024F08004496821439160012283F83D20D8
:10137C00002083F83C0010BC70470220704700BF6F
:10138C00002C014010B504460268136923F4405345
:10139C00C1680B43136183680269134342691A43A2
:1013AC000168CB6823F4B05323F00C031343CB60D8
:1013BC000268536923F4407381690B4353610268DB
:1013CC00134B9A4220D0FFF725FE024602EB820215
:1013DC0002EB820263689B00B2FBF3F20D48A0FBA8
:1013EC0002314909642303FB11231B013233A0FB97
:1013FC0003035B0903F0F00202EB011203F00F038D
:10140C00216813448B6010BDFFF714FE0246DDE724
:10141C00003801401F85EB512DE9F84305460F4676
:10142C0016469946DDF820802B681C6837EA0404C0
:10143C000CBF01240024B4422DD1B8F1FF3FF3D0EE
:10144C00B8F1000F05D0FFF763F9A0EB0900404598
:10145C00EAD92A6802F10C0353E8003F23F4D07355
:10146C000C3242E800310029F3D12A6802F114034E
:10147C0053E8003F23F00103143242E80031002905
:10148C00F3D1202385F8413085F84230002385F8CC
:10149C004030032000E00020BDE8F88360B310B5B5
:1014AC00044690F8413013B3242384F84130226869
:1014BC00D36823F40053D3602046FFF763FF226800
:1014CC00136923F4904313612268536923F02A03B0
:1014DC0053612268D36843F40053D36000206064E6
:1014EC00202384F8413084F84230606310BD80F8CA
:1014FC004030FFF719F8D7E7012070472DE9F0418C
:10150C0082B01E4690F84130DBB2202B4BD1044602
:10151C000D46904600294AD00AB9012044E0002328
:10152C004364212380F84130FFF7F2F80746A4F812
:10153C002480A4F82680A368B3F5805F02D04FF016
:10154C0000080FE02369FBB14FF000080AE038F8FF
:10155C00023B2268C3F308035360E28C92B2013A57
:10156C0092B2E284E38C9BB28BB100963B46002294
:10157C0080212046FFF750FFD8B9002DE7D015F891
:10158C00012B23685A60E8E7A8460025EAE7009695
:10159C003B46002240212046FFF73EFF58B920234E
:1015AC0084F8413000E0022002B0BDE8F081012057
:1015BC00FAE70320F8E70320F6E70000024A0349A4
:1015CC00034800F0C9B800BF0C0000204D230008F0
:1015DC00200000200C4B416810B59942044601D004
:1015EC0000F0AEFEA168094B994202D0204600F0F3
:1015FC00A7FEE168064B994204D02046BDE8104096
:10160C0000F09EBE10BD00BF0C060020740600202A
:10161C00DC0600202DE9F84300250423304C314A28
:10162C003149DFF8C890DFF8C880324F324E116074
:10163C0004F15C0029460822C4E90335C4E90055CD
:10164C00C4E90555A560656600F044F904F158003D
:10165C00C4E90749C4E90987E66200F00DFA274B93
:10166C002946082204F1C4006367C4E91A55C4E989
:10167C001E552567C4F8CC50C4F8805000F02AF9E8
:10168C0004F1680304F1C000C4F88430C4E9229862
:10169C00C4E9247600F0F0F9194B294604F596704C
:1016AC000822C4F8DC30C4E93455C4E93855C4F810
:1016BC00D850C4F83451C4F8E85000F00BF904F1D8
:1016CC00D003C4E93D87C4F8F09004F59470C4F8D5
:1016DC00FC60C4F8EC30BDE8F84300F0CDB900BFB5
:1016EC000C06002044070020C915000851180008FA
:1016FC0075180008B5180008D91800080900010071
:10170C001200020010B504460A4800F0B9F9636BE8
:10171C0023B9094B094A1B68626323B1BDE8104029
:10172C00044800F0AFB9FFF775FFBDE81040014861
:10173C0000F0A8B95407002044070020E115000868
:10174C00014800F09DB900BF54070020014800F08B
:10175C0099B900BF540700202DE9F8434FF0000958
:10176C0080460F461646D6E90154013D10D4A38994
:10177C00013D012B08D9B4F90E30013304D02146B8
:10178C004046B84749EA00096B1C04F16804EED1E5
:10179C003668002EE7D14846BDE8F88330B50546DB
:1017AC0089B008460C4600F06FF901210223204A4B
:1017BC00049406926A6B04AC05900844019407915A
:1017CC00AC6802930390002A2ED0626EB4F90C30F0
:1017DC00D20701D4980521D5990406D4626E43F43E
:1017EC00005322F40052A3816266284601AA2146C6
:1017FC0000F0C4FE636E00280CBF0A254FF0FF35C5
:10180C00DA0702D4A3899B0502D5284609B030BD5E
:10181C00A06D00F037F9284609B030BDA06D00F07E
:10182C002FF9B4F90C30D7E72846FFF76BFFCCE75C
:10183C0074300008024B01461868FFF7AFBF00BFB9
:10184C001800002010B50C46B1F90E1000F0BAF8D3
:10185C00002803DB236D0344236510BDA38923F407
:10186C008053A38110BD00BF2DE9F0410C46B1F9A6
:10187C000C101F46CB05054616460BD421F480519F
:10188C00A1813B4632462846B4F90E10BDE8F04122
:10189C0000F0AEB8B4F90E100223002200F07CF870
:1018AC00B4F90C10EAE700BF10B50C46B1F90E10F4
:1018BC0000F072F8B4F90C30421C0EBF23F48053C4
:1018CC0043F480532065A38110BD00BFB1F90E1005
:1018DC0000F050B870B5860747D0541E002A3ED091
:1018EC000346CAB201E0013C39D303F8012B9D0732
:1018FC00F9D1032C2CD9CDB205EB05250F2C1A46AA
:10190C0005EB054534D9A4F1100C2CF00F0603F1AE
:10191C00100EB6444FEA1C1C156055609560D560DE
:10192C0010327245F8D10CF1010214F00C0F03EBDC
:10193C00021204F00F0C13D0ACF1040323F00303D8
:10194C000433134442F8045B9A42FBD10CF00304B9
:10195C002CB1C9B21C4403F8011B9C42FBD170BDD5
:10196C0064461346002CF4D1F9E703461446C0E74D
:10197C00A446E1E7002238B5064D044608462A6025
:10198C00FEF738FD431C00D038BD2B68002BFBD074
:10199C00236038BD4807002038B50C46114600229C
:1019AC008446074D20462A601A466446FEF72CFDF5
:1019BC00431C00D038BD2B68002BFBD0236038BDF6
:1019CC004807002038B50C46114600228446074DC6
:1019DC0020462A601A466446FEF7EEFC431C00D0F3
:1019EC0038BD2B68002BFBD0236038BD4807002086
:1019FC0038B50C46114600228446074D20462A6015
:101A0C001A466446FEF7E8FC431C00D038BD2B6830
:101A1C00002BFBD0236038BD48070020014B186811
:101A2C00704700BF1800002070B50F4B0F4DAB4234
:101A3C00A3EB050607D00024B61055F8043B01347F
:101A4C009847A642F9D801F0E7FA094D094B5E1BFD
:101A5C00AB424FEAA60606D0002455F8043B0134ED
:101A6C009847A642F9D870BD803000088030000835
:101A7C008030000888300008704700BF704700BFF6
:101A8C00704700BF704700BF20F0030110F0030047
:101A9C00C0F1000051F8043B00F1040C4FEACC0CEF
:101AAC006FF000021CBF22FA0CF213434FF0010C32
:101ABC004CEA0C2C4CEA0C4CA3EB0C0222EA030271
:101ACC0012EACC1204BF51F8043B0430F4D0C2F13A
:101ADC00000102EA0102B2FA82F2C2F11F0200EB2B
:101AEC00D2007047024B13B1024800F005B87047A2
:101AFC0000000000552A0008002301461A4618462B
:101B0C0001F010B82DE9F84306460820894600F08C
:101B1C00AFFF0546DFF89880304600F005FCD8F89A
:101B2C0008305F6827F00307A7F11104A4EB090440
:101B3C002C44B4FBF5F4013C05FB04F4A54208DC91
:101B4C000021304600F06EFFD8F808303B44984234
:101B5C0005D0304600F0EEFB0020BDE8F88330469F
:101B6C00614200F05FFF01300FD0124AD8F8083004
:101B7C003F1B47F001075F60136830461B1B136067
:101B8C0000F0D8FB0120BDE8F8830021304600F0BE
:101B9C0049FFD8F80820831A0F2BDADD43F0010334
:101BAC005360054B03491B68C01A0860D1E700BF9E
:101BBC00500100205C0700204401002000297CD04B
:101BCC00F8B50C46064600F0AFFB54F8043C774FD2
:101BDC00A4F1080523F001016818D7F808C0426881
:101BEC00844522F0030200F08380DB07426000EBA7
:101BFC00020C33D454F8084CDCF804302D1B21446F
:101C0C00AC6807F1080C644503F0010364D0D5F807
:101C1C000CE0C4F80CE0CEF80840002B00F08180FA
:101C2C0041F001036B600160B1F5007F22D201220B
:101C3C00CB0849098A40796801330A437A6057F81E
:101C4C00331007EBC302083AC5E9021247F83350C8
:101C5C00CD603046BDE8F84000F06CBBDCF80430D9
:101C6C00DB072BD541F00103B1F5007F44F8043CB0
:101C7C000160DCD3B1F5206F4FEA512353D28B09AD
:101C8C0003F1390003F13802C300F818FB58083887
:101C9C00984203D163E09B68984204D05A6822F0C2
:101CAC0003028A42F7D8D868C5E90230856030460D
:101CBC00DD60BDE8F84000F03DBB7047114407F112
:101CCC00080C836863453FD0C268DA60936041F0CA
:101CDC0001036B606950A7E7002B61D10A44D0E97E
:101CEC000213CB60996042F001036B60AA50B0E71D
:101CFC000A44D90707D454F8083CED1A1A44D5E91C
:101D0C000213CB60996042F001036B60284BBD60FD
:101D1C001B6893429DD8274B30461968FFF7F2FE9B
:101D2C0097E71144CDE7142B08D9542B1FD80B0B74
:101D3C0003F16F0003F16E02C300A6E703F15C0030
:101D4C0003F15B02C300A0E741F001033D617D613B
:101D5C00C5F808C0C5F80CC06B60695079E7012163
:101D6C00921001FA02F279680A437A609CE7B3F5A3
:101D7C00AA7F06D8CB0B03F1780003F17702C300DE
:101D8C0083E740F25452934206D88B0C03F17D004A
:101D9C0003F17C02C30078E74FF47E737E2274E774
:101DAC0041F001036B60016053E700BF500100205C
:101DBC00480100208C0700202DE9F04F01F10B05A4
:101DCC00162D064683B024D8102900F2AA8000F004
:101DDC00ABFA102518234FF0020CB74F3B445C684C
:101DEC00A3F10802944200F0198130466368E2685E
:101DFC00A16823F00303CA60234491605A68083435
:101E0C0042F001025A6000F095FA204603B0BDE89A
:101E1C00F08F35F0070500F18480A94200F2818033
:101E2C0000F082FAB5F5FC7FC0F06F816B0A7CD0B4
:101E3C00042B00F21B81AB0903F1390C03F1380EB2
:101E4C004FEACC009C4F384444680838A04207D174
:101E5C000DE0002AE16880F2DB80884207D00C4656
:101E6C00636823F003035A1B0F2AF2DDF446DFF8F4
:101E7C004C823C69444500F0B980636823F0030E42
:101E8C00AEEB05030F2B00F34581002BC7E904884B
:101E9C0080F22F81BEF5007F786880F0C680012328
:101EAC004FEADE014FEA5E1E194403FA0EF357F8AF
:101EBC003120184307EBC103083BA260E360786054
:101ECC0047F83140D46001214FEAAC03994081427C
:101EDC0032D8014206D12CF0030C490001420CF11E
:101EEC00040CFAD007EBCC0A5046E146D0F80CE0D3
:101EFC000DE0DEF80420744622F00302531B0F2B76
:101F0C00DEF80CE000F3BF80002B80F2E38070451C
:101F1C00EFD109F1010919F0030F00F10800E5D127
:101F2C0024E10C23336000246FE74FF400704FF072
:101F3C00400C4FF03F0E85E7BC68636823F0030943
:101F4C00A94503D3A9EB05030F2B51DC5C4B0820EF
:101F5C001B6803F1100800F08BFD5A4A04EB0903CF
:101F6C000093136883460133A84405D008F1FF3869
:101F7C008044434203EA08084146304600F052FDD3
:101F8C00B0F1FF3F82464F4A00F0E18004EB0903B9
:101F9C00834200F2DA804C4B0BF1FF31186840445D
:101FAC008446186040F000811AEA010F40F0FC8072
:101FBC00D7F808A0C84448F00102CAF804205446D7
:101FCC00424B1968814238BF1860414B19688142F5
:101FDC0038BF186022F00308A845A8EB050301D30D
:101FEC000F2B05DC304600F0A5F99CE778686AE712
:101FFC00621943F0010345F0010565603046BA6093
:10200C000834536000F096F9204603B0BDE8F08F19
:10201C00A2683046D16023448A60EFE6DC68A342B4
:10202C007FF4E3AE0CF1020C21E7BEF5206F4FEA12
:10203C005E22C0F08380142A00F2178102F15C0347
:10204C00DB005B32F918FB580839994203D1F3E0F5
:10205C009B68994204D05A6822F003027245F7D863
:10206C00D968C4E902318C60DC602CE7142B71D97F
:10207C00542B00F203812B0B03F16F0C03F16E0E4A
:10208C004FEACC00DEE66119304645F00105A66842
:10209C00656043F00105C6F80CE0CEF80860C7E9AE
:1020AC000411C1F80880C1F80C804D60A35000F0F9
:1020BC0041F90834A9E600BF500100205801002066
:1020CC008C070020440100205C07002088070020BA
:1020DC008407002022445368304643F001035360C8
:1020EC0054F8083FC3F80CE0CEF8083000F022F9A1
:1020FC008BE6A644DEF80430304643F00103CEF8FC
:10210C00043000F017F908347FE64FEAD50C05F1DE
:10211C00080362E6621943F0010145F001056560B0
:10212C003046C7E90422C2F80880C2F80C8051601E
:10213C0044F80E3000F0FEF8083466E64FEA9E12C2
:10214C0002F13903DB0038327CE7BC4224D0BC6896
:10215C0062683FE703F15C0C03F15B0E4FEACC00C5
:10216C0070E65AF80839534540F0D9801CF0030F3B
:10217C000CF1FF3CF5D17B6823EA01037B6049003D
:10218C0099423FF6D9AE19B9D6E6490009F10409CE
:10219C001942FAD0CC46A5E6624B0BF1FF31186818
:1021AC0008EB000CC3F800C01068013071D004EBD0
:1021BC000902AAEB020262441A601AF00702CDE986
:1021CC00002341D0C2F108029244D04408EA010035
:1021DC005A44121A02EA010B5946304600F022FC0E
:1021EC00421C019B72D0A0EB0A0000EB0B08186894
:1021FC0048F001025844BC42C7F808A01860CAF85D
:10220C0004203FF4DCAEB9F10F0F45D94FF0050CAB
:10221C006168A9F10C0222F0070201F001011143DF
:10222C0061600F2A04EB0201C1F804C0C1F808C0B8
:10223C0054D8DAF80420C2E64FF0010E92100EFAD0
:10224C0002F2104378600CE70AEB08020A40ABEB91
:10225C00020202EA010B5946304600F0E3FB431C34
:10226C00019BC0D1DDF800B0C1E7542A18D84FEA61
:10227C001E3202F16F03DB006E32E3E6B3F5AA7F88
:10228C0018D8EB0B03F1780C03F1770E4FEACC0066
:10229C00D8E5C2F800A090E70123CAF80430A1E603
:1022AC00B2F5AA7F25D84FEADE3202F17803DB00C3
:1022BC007732C7E640F25452934225D8AB0C03F167
:1022CC007D0C03F17C0E4FEACC00BBE5009A4FF07D
:1022DC00000B083A9044A8EB0A0888E7304604F152
:1022EC0008010093FFF76AFC009BD7F808A0186858
:1022FC009FE740F254539A420DD84FEA9E4202F1A6
:10230C007D03DB007C329DE64FF47E704FF07F0C3A
:10231C004FF07E0E96E54FF47E737E2292E67B683C
:10232C002DE700BF5C0700200148FFF7A9BB00BFE9
:10233C004C0700200148FFF7A5BB00BF4C0700204D
:10234C0070B500293FD005460C4610B1436B002BED
:10235C003CD0636EB4F90C20DE0732D4900538D52E
:10236C002146284600F04CF8E36A064633B128466D
:10237C00E16998470028B8BF4FF0FF36A3891A06C9
:10238C0039D4216B41B104F14003994202D0284663
:10239C00FFF714FC00232363616C21B12846FFF77F
:1023AC000DFC00236364FFF7CBF90022636EA2815E
:1023BC00DB071CD5A06DFFF761FBFFF7C7F93046B3
:1023CC0070BD002ACCD10026304670BDFFF79AF9BB
:1023DC00BFE7A06DFFF754FBB4F90C30002BBFD155
:1023EC00636ED907EFD4A06DFFF74CFBEBE7A06D44
:1023FC00FFF748FBDEE728462169FFF7DFFBC0E764
:10240C00B1F90C20F8B5074610070C4646D44968BC
:10241C0042F400630029A3815CDDA56A002D3BD04A
:10242C00002112F480523E683960E1695ED10123CB
:10243C003846A847411C024667D0B4F90C30A56A4F
:10244C00E1695B0705D56368D21A236B0BB1E36BAB
:10245C00D21A00233846A847451C49D139681D2992
:10246C003CD8304AB4F90C300A4112F0010237D191
:10247C0062602269226023F40062A281DA044DD4E6
:10248C00216B3E6041B104F14003994202D03846C1
:10249C00FFF794FB002323630020F8BD0E69002E88
:1024AC00FAD00D680E60910714BF00236369AD1B51
:1024BC00A3600CE02B463246D4F824C03846E169C0
:1024CC00E047B0F1000CA5EB0C05664406DD002DD1
:1024DC00F0DCE1E7E16B00299FDCDDE7B4F90C30BF
:1024EC0043F040034FF0FF30A381F8BD226DA8E705
:1024FC000022B4F90C3062602269226023F400627D
:10250C00DB04A281BCD52065BAE73B68002B94D0D4
:10251C001D2B01D0162BE1D13E60BDE70029AFD1B8
:10252C00F1E700BFFEFFBFDF38B505460C4608B12A
:10253C00436B03B3B4F90C0088B1636EDB0701D4B1
:10254C0081050FD528462146FFF75AFF636E0546D5
:10255C00DA0702D4A3899B0508D5284638BD054661
:10256C00284638BDA06DFFF78BFAEBE7A06DFFF79F
:10257C0089FA284638BDFFF7C5F8DBE79368002BCE
:10258C0000F0F0802DE9F04FB1F90CC090461CF032
:10259C00080F81460C4683B02BD00B694BB31CF053
:1025AC000207D8F8006032D04FF0000A5546D4F834
:1025BC0024B0E169AB4FC5B1BD422B46524628BF92
:1025CC003B464846D847002840F3C280D8F808302C
:1025DC0082441B1A2D1AC8F80830002B00F0AE806C
:1025EC00D4F824B0E169002DE6D1D6E900A508366F
:1025FC00E1E72146484600F037F9002840F0AD806D
:10260C00B4F90CC0D8F800601CF00207CCD11CF057
:10261C00010A63D157462368A16818468B46002FE0
:10262C0058D01CF4007F00F0B180B9420A4600F289
:10263C00DD801CF4906F2FD0216962695D1A02EB6A
:10264C00420202EBD2726B1C52103B44934292BF7B
:10265C0093469B461A461CF4806F00F0E6801146A8
:10266C004846FFF7A9FB002800F0F5802A462169AF
:10267C000190FDF745FDA289019B22F4906242F086
:10268C008002A2815819C4F814B0ABEB05053A4688
:10269C00BB462361A56020603D4600275146019250
:1026AC0000F042F9A1682368019AA1EB0B011A44CE
:1026BC00A1602260D8F80830AA445B1BC8F8083027
:1026CC00002B3BD02368A16818468B46B4F90CC08C
:1026DC00002FA6D1D6E900A708369EE73846BB46A0
:1026EC003D46002D40D0002845D03A46D4E904C3DD
:1026FC002068AA4228BF2A466045A16804D901EB8C
:10270C00030A524500F38280934272DC5A464846D3
:10271C00E169D4F824C0E047B0F1000A18DDB7EB4A
:10272C000A070FD00120D8F80830D344A3EB0A03D2
:10273C00A5EB0A05C8F80830002BD2D1002003B055
:10274C00BDE8F08F21464846FFF7EEFE0028EAD0A0
:10275C00B4F90C3043F04003A3814FF0FF3003B0C9
:10276C00BDE8F08F00207047756833460836002DA1
:10277C00FAD0D3F800B02A460A21584600F086F960
:10278C00002865D00130A0EB0B07AEE722699A4216
:10279C0014D36569BD4211D86FF00043BB4228BF0A
:1027AC003B4693FBF5F3524605FB03F34846656A3B
:1027BC00E169A847051ECBDD7F1B7BE7B94228BF2B
:1027CC0039460D46184651462A4600F0ADF8A16828
:1027DC002368491B2B44A16023600029ECD12146BE
:1027EC004846FFF7A1FE0028E6D0B1E7BB463A46C3
:1027FC0052E759469246019200F096F8A368019A66
:10280C009B1AA36023681344236088E759465246F9
:10281C0000F08AF823682146534448462360FFF7AA
:10282C0083FE00283FF47BAF92E7484600F0BAF9EC
:10283C00034600287FF426AF48462169FFF7BEF90E
:10284C000C22B4F90C30C9F8002023F0800381E786
:10285C006A1C17464AE70C22B4F90C30C9F8002060
:10286C0078E700BF00FCFF7F38B52E4B05461B6890
:10287C000C4613B15A6B002A4BD0B4F90C30180724
:10288C001CD5226922B313F0010107D00020616925
:10289C00A0604942A1613AB1002038BD980758BFE9
:1028AC006169A160002AF7D1190658BF1046F4D50A
:1028BC0043F040034FF0FF30A38138BDD9062CD52F
:1028CC005A0712D4226943F00803A381002ADAD1F3
:1028DC0003F42071B1F5007FD5D02146284600F0D5
:1028EC0007FBB4F90C302269CDE7216B51B104F12F
:1028FC004002914204D02846FFF760F9B4F90C303D
:10290C00002222630021226923F02403C4E9002160
:10291C00D9E71846FEF7F6FEAFE7092243F040036D
:10292C002A60C7E71800002088420ED98B18834212
:10293C000BD900EB020C002A6DD0624613F801CDC6
:10294C00994202F801CDF9D170470F2A0FD80346EE
:10295C0002F1FF3C002A5ED00CF1010C013B8C44CF
:10296C0011F8012B614503F8012FF9D1704740EAAA
:10297C0001039B0750D1A2F1100370B501F1200C9B
:10298C0023F00F0501F1100E00F11004AC441B09EB
:10299C005EF8105C0EF1100E44F8105C5EF81C5CD6
:1029AC00103444F81C5C5EF8185C44F8185C5EF853
:1029BC00145CE64544F8145CEAD1013312F00C0FB8
:1029CC0001EB031102F00F0400EB031328D08E4629
:1029DC00043C24F003064FEA940C1E441C1F5EF8C2
:1029EC00045B44F8045FB442F9D10CF1010402F029
:1029FC00030203EB840301EB840102F1FF3C4AB1B7
:102A0C000CF1010C013B8C4411F8012B614503F8CE
:102A1C00012FF9D170BD7047034602F1FF3C9BE7D3
:102A2C002246EAE7002238B5064D044608462A60DD
:102A3C00FDF7ECFC431C00D038BD2B68002BFBD001
:102A4C00236038BD4807002038B5074D074C2C1BB8
:102A5C00A41005D0013C55F8043D9847002CF9D141
:102A6C00BDE8384000F0DEBA8C3000088830000831
:102A7C00082802D14FF48050704708B5FEF7CEFFFE
:102A8C00162203464FF0FF301A6008BD5FFA81FC36
:102A9C00810744D00346511E22B909E09A0709D098
:102AAC00013905D31846027801336245F6D17047D7
:102ABC0000207047184603290CD80029F8D003468B
:102ACC00014401E08B42F3D0184613F8012B624508
:102ADC00F8D1ECE710B50CEB0C24024604EB0444E3
:102AEC0002E00439032918D9104652F8043B63401C
:102AFC00A3F1013E2EEA030313F0803FF1D051B154
:102B0C000346014401E08B4205D0184613F8012B13
:102B1C006245F8D110BD002010BD1046EFE71146FC
:102B2C00C9E700BF2DE9F8431B4D064628689846B7
:102B3C000F469146FEF7A4FF184B1C681CB328687F
:102B4C0065681F2D22DC4EB96B1C0235636044F89E
:102B5C002570FEF797FF0020BDE8F883012304EBF6
:102B6C008501C1F88890D4F88821AB401A43022E15
:102B7C00C4F88821C1F80881E6D1D4F88C211A4315
:102B8C00C4F88C21E0E7064C1C60D8E7FEF77AFF0E
:102B9C004FF0FF30E0E700BF400100205807002055
:102BAC00900700202DE9F84F1646002900F096807A
:102BBC000C46804606F10B05FFF7B6FB54F8041CD7
:102BCC00162DA4F1080921F0030758D81025AE42A0
:102BDC0058D8AF4260DABF4B09EB070C9A68DCF8A7
:102BEC000400624500F0908020F0010363445B68B0
:102BFC00DA0768D420F003003B189D4247DDCB0771
:102C0C0012D454F8083CA9EB030BDBF8043023F086
:102C1C000302104400EB070A554540F3F68007EB1E
:102C2C00020A554540F3CC8031464046FFF7C4F8C4
:102C3C000646002800F0218154F8043CA0F108025B
:102C4C0023F001034B44934200F0B4803A1F242A32
:102C5C0000F2D780132A00F2A280034622461168A4
:102C6C0019605168596092689A6021464046FEF797
:102C7C00A5FF4046FFF75EFB3046BDE8F88F35F008
:102C8C000705A4D50C23C8F80030002618E01F4611
:102C9C00DCE90223D3609A60D9F804307A1B0F2A3E
:102CAC0003F0010309EB07001DD83B43C9F80430BE
:102CBC00436843F0010343604046FFF73BFB264665
:102CCC003046BDE8F88FC907AED454F8083CA9EBE0
:102CDC00030BDBF8043023F00302A0E71146BDE838
:102CEC00F84FFFF769B82B4309EB050142F00102DD
:102CFC00C9F804304A604368083143F0010343606B
:102D0C004046FEF75BFFD7E720F00300C21905F140
:102D1C00100C624580F29280CA0785D454F8082CB6
:102D2C00A9EB020BDBF8042022F00302104400EBA9
:102D3C00070AD4453FF773AF5E46DBF80C1056F824
:102D4C00080F3A1F242AC160886000F2B080132A51
:102D5C0040F2AB8021681B2ACBF808106168CBF8D5
:102D6C000C1000F2AA8008340BF1100221681160DB
:102D7C0061685160A1689160AAEB05020BEB05013B
:102D8C0042F0010299604A60DBF80430404603F0DF
:102D9C0001032B43CBF80430FFF7CCFA90E7236800
:102DAC001B2A0360636843603DD804F1080200F1FC
:102DBC00080354E750F8043C23F003031F446BE76B
:102DCC005E463A1FDBF80C3056F8081F242ACB60FD
:102DDC00996023D8132A1FD923681B2ACBF80830F3
:102DEC006368CBF80C303CD808340BF11003226824
:102DFC001A6062685A60A2689A6034465746D9468F
:102E0C004AE72146FFF790FD2FE7DCE902135E4607
:102E1C00CB603A1F9960D5E73346E8E72146304648
:102E2C00FFF782FDE9E7A368242A8360E368C360A7
:102E3C0027D004F1100200F1100310E7521B09EB2C
:102E4C00050142F0010299604A6054F8043C404686
:102E5C0003F001032B4344F8043CFFF76BFA2646BE
:102E6C002EE7A368242ACBF81030E368CBF8143093
:102E7C0010D010340BF11803B9E74046FFF75AFA9B
:102E8C0003E7236904F1180203616369436100F1EC
:102E9C001803E4E623691834CBF8183054F8043CD2
:102EAC00CBF81C300BF12003A1E732465EE721463C
:102EBC003046FFF739FD074B5EE7A168242ACBF8B3
:102ECC001010E168CBF8141006D010340BF1180276
:102EDC004CE700BF5001002022691834CBF81820B1
:102EEC0054F8042CCBF81C200BF120023EE700BF59
:102EFC002DE9F041B1F90C300C46990796B008D584
:102F0C00012204F14303C4E90432236016B0BDE886
:102F1C00F081B4F90E100646002926DB6A4600F053
:102F2C0055F800281FDB019D4FF4806805F47045AF
:102F3C00A5F50055B5FA85F54FF400676D094146C6
:102F4C003046FEF739FFE8B1B4F90C30C4F8148000
:102F5C0043F0800320602061A3813DBB3B43A381F0
:102F6C0016B0BDE8F081B4F90C3013F0800519D01F
:102F7C004FF040080025414630462F46FEF71CFF17
:102F8C000028E1D1B4F90C309A05BFD4012123F00B
:102F9C00030304F1430243F00203C4E90421A381B7
:102FAC002260B3E74FF480682F46C8E73046B4F987
:102FBC000E1000F01FF810B9B4F90C30CEE7A3894D
:102FCC0023F0030343F001031BB2C7E770B50026DF
:102FDC00074D0446084611462E60FDF70EFA431CB9
:102FEC0000D070BD2B68002BFBD0236070BD00BFE0
:102FFC0048070020002238B5064D044608462A60D2
:10300C00FDF700FA431C00D038BD2B68002BFBD019
:10301C00236038BD48070020F8B500BFF8BC08BCD9
:10302C009E467047F8B500BFF8BC08BC9E4670477A
:10303C0074696D652061727269766500000000002C
:10304C000102030400000000000000000102030460
:10305C000607080901020000020304050607080917
:0C306C000A0B0C0D0E0F10100A000000E3
:0830780094D0FF7F010000006D
:08308000F11A000861020008CA
:043088003902000801
:10308C000024F4000100000010000000000000000B
:10309C00030000000C0600202000002000000000AF
:1030AC00000000000C06002074060020DC06002046
:1030BC000000000000000000000000000000000004
:1030CC0000000000000000000000000000000000F4
:1030DC0000000000000000000000000000000000E4
:1030EC0000000000000000000000000000000000D4
:1030FC0000000000000000000000000000000000C4
:10310C0000000000000000000000000000000000B3
:10311C0000000000000000000000000000000000A3
:10312C000000000000000000000000000000000093
:10313C000000000000000000010000000000000082
:10314C000E33CDAB34126DE6ECDE05000B00000047
:10315C000000000000000000000000000000000063
:10316C000000000000000000000000000000000053
:10317C000000000000000000000000000000000043
:10318C000000000000000000000000000000000033
:10319C000000000000000000000000000000000023
:1031AC000000000000000000000000000000000013
:1031BC000000000000000000000000000000000003
:1031CC0050070020FFFFFFFF00000200000000007E
:1031DC000000000000000000500100205001002001
:1031EC0058010020580100206001002060010020DF
:1031FC00680100206801002070010020700100208F
:10320C00780100207801002080010020800100203E
:10321C0088010020880100209001002090010020EE
:10322C009801002098010020A0010020A00100209E
:10323C00A8010020A8010020B0010020B00100204E
:10324C00B8010020B8010020C0010020C0010020FE
:10325C00C8010020C8010020D0010020D0010020AE
:10326C00D8010020D8010020E0010020E00100205E
:10327C00E8010020E8010020F0010020F00100200E
:10328C00F8010020F80100200002002000020020BC
:10329C00080200200802002010020020100200206A
:1032AC00180200201802002020020020200200201A
:1032BC0028020020280200203002002030020020CA
:1032CC00380200203802002040020020400200207A
:1032DC00480200204802002050020020500200202A
:1032EC0058020020580200206002002060020020DA
:1032FC00680200206802002070020020700200208A
:10330C007802002078020020800200208002002039
:10331C0088020020880200209002002090020020E9
:10332C009802002098020020A0020020A002002099
:10333C00A8020020A8020020B0020020B002002049
:10334C00B8020020B8020020C0020020C0020020F9
:10335C00C8020020C8020020D0020020D0020020A9
:10336C00D8020020D8020020E0020020E002002059
:10337C00E8020020E8020020F0020020F002002009
:10338C00F8020020F80200200003002000030020B7
:10339C000803002008030020100300201003002065
:1033AC001803002018030020200300202003002015
:1033BC0028030020280300203003002030030020C5
:1033CC003803002038030020400300204003002075
:1033DC004803002048030020500300205003002025
:1033EC0058030020580300206003002060030020D5
:1033FC006803002068030020700300207003002085
:10340C007803002078030020800300208003002034
:10341C0088030020880300209003002090030020E4
:10342C009803002098030020A0030020A003002094
:10343C00A8030020A8030020B0030020B003002044
:10344C00B8030020B8030020C0030020C0030020F4
:10345C00C8030020C8030020D0030020D0030020A4
:10346C00D8030020D8030020E0030020E003002054
:10347C00E8030020E8030020F0030020F003002004
:10348C00F8030020F80300200004002000040020B2
:10349C000804002008040020100400201004002060
:1034AC001804002018040020200400202004002010
:1034BC0028040020280400203004002030040020C0
:1034CC003804002038040020400400204004002070
:1034DC004804002048040020500400205004002020
:1034EC0058040020580400206004002060040020D0
:1034FC006804002068040020700400207004002080
:10350C00780400207804002080040020800400202F
:10351C0088040020880400209004002090040020DF
:10352C009804002098040020A0040020A00400208F
:10353C00A8040020A8040020B0040020B00400203F
:10354C00B8040020B8040020C0040020C0040020EF
:10355C00C8040020C8040020D0040020D00400209F
:10356C00D8040020D8040020E0040020E00400204F
:10357C00E8040020E8040020F0040020F0040020FF
:10358C00F8040020F80400200005002000050020AD
:10359C00080500200805002010050020100500205B
:1035AC00180500201805002020050020200500200B
:1035BC0028050020280500203005002030050020BB
:1035CC00380500203805002040050020400500206B
:0835DC0048050020480500200D
:04000005080005AD3D
:00000001FF
